:100000000C942A000C9447000C9447000C94470071
:100010000C9447000C9447000C9447000C94470044
:100020000C9447000C9447000C9447000C94470034
:100030000C9447000C9447000C9447000C94470024
:100040000C9447000C9447000C9447000C94470014
:100050000C94470011241FBECFE5D4E0DEBFCDBF16
:1000600010E0A0E6B0E0EAE1F3E002C005900D92F6
:10007000AC37B107D9F720E0ACE7B0E001C01D9282
:10008000A038B207E1F70E94FE000C948B010C949B
:100090000000982F907F98BBC098C198C29AEFE05B
:1000A000F7E23197F1F700C00000C298F0E18F9FAE
:1000B000C001112488BBC098C198C29A8FE097E212
:1000C0000197F1F700C00000C2980895982F907F23
:1000D00098BBC09AC198C29AEFE0F7E23197F1F766
:1000E00000C00000C298F0E18F9FC001112488BBBE
:1000F000C09AC198C29A8FE097E20197F1F700C0C9
:100100000000C29808958FEF87BB82E00E944900EB
:1001100088E20E94490086E00E9449008EE00E9429
:10012000490081E00E9449000895CF93DF93EC01DC
:100130008881882331F021960E946600899181117F
:10014000FBCFDF91CF91089589E985BB2FE38DE047
:1001500093E0215080409040E1F700C000008CEC1B
:1001600085BB2FE38DE093E0215080409040E1F784
:1001700000C0000086E685BB2FE38DE093E02150B0
:1001800080409040E1F700C0000083E385BB2FE38F
:100190008DE093E0215080409040E1F700C00000E6
:1001A000089583E385BB2FE38DE093E021508040E9
:1001B0009040E1F700C0000086E685BB2FE38DE0AC
:1001C00093E0215080409040E1F700C000008CECAB
:1001D00085BB2FE38DE093E0215080409040E1F714
:1001E00000C0000089E985BB2FE38DE093E021503A
:1001F00080409040E1F700C000000895CFEFC7BBFA
:100200000E94830081E00E94490080E80E9449002A
:1002100080E690E00E9495002FE38DE093E021506E
:1002200080409040E1F700C000008DE690E00E9421
:1002300095002FE38DE093E0215080409040E1F75E
:1002400000C000008DE690E00E9495002FE38DE055
:1002500093E0215080409040E1F700C000008DE61F
:1002600090E00E9495002FE38DE093E021508040C4
:100270009040E1F700C000008DE690E00E949500FC
:1002800081E00E94490080E80E9449008FE690E0EA
:100290000E9495001ABAC4BB15BAC7E810ECD1EC9D
:1002A000C6B917B9369A349BFECF84B195B19093F5
:1002B0007F0080937E00C6B9D7B9369A349BFECFB3
:1002C00084B195B190937D0080937C0020917E0055
:1002D00030917F008217930714F40E94A4002091AC
:1002E0007E0030917F0080917C0090917D002817E6
:1002F000390714F40E94D10020917E0030917F00D4
:1003000080917C0090917D002817390711F415BA6F
:0A031000C7CF15BAC5CFF894FFCF90
:10031A00496E697469616C697A696E67002E005367
:0C032A00756E20547261636B65720000F8
:00000001FF
